{
  "transactions": [
    {
      "hash": "0xf30a2c22bc5d1e320b3952cd5f21e1569735f71bf185c571cbba28e8e4c355c4",
      "transactionType": "CALL",
      "contractName": null,
      "contractAddress": "0xe6e02e83a368d09cbbf51ee019e0646c1406053d",
      "function": "modifyDid(uint256,string)",
      "arguments": [
        "0",
        "new metadata modify"
      ],
      "transaction": {
        "from": "0x6d9ee3d3f6fc84d8a615b1d0f6437bc273c709b9",
        "to": "0xe6e02e83a368d09cbbf51ee019e0646c1406053d",
        "gas": "0xbfc5",
        "value": "0x0",
        "input": "0xe78892df0000000000000000000000000000000000000000000000000000000000000000000000000000000000000000000000000000000000000000000000000000004000000000000000000000000000000000000000000000000000000000000000136e6577206d65746164617461206d6f6469667900000000000000000000000000",
        "nonce": "0x3",
        "chainId": "0x1789"
      },
      "additionalContracts": [],
      "isFixedGasLimit": false
    }
  ],
  "receipts": [
    {
      "status": "0x1",
      "cumulativeGasUsed": "0x9c27",
      "logs": [
        {
          "address": "0xe6e02e83a368d09cbbf51ee019e0646c1406053d",
          "topics": [
            "0xc5d00ebf0cf211312ea3854c8e751dbbcd16591804a72f6739ee735ec33e30f1",
            "0x0000000000000000000000000000000000000000000000000000000000000000"
          ],
          "data": "0x000000000000000000000000000000000000000000000000000000000000002000000000000000000000000000000000000000000000000000000000000000136e6577206d65746164617461206d6f6469667900000000000000000000000000",
          "blockHash": "0x8f03e8b20b41396caf426ca620c6fed47ac9cc4a5bf760496624f7f1b5b3a868",
          "blockNumber": "0xb0c6e",
          "transactionHash": "0xf30a2c22bc5d1e320b3952cd5f21e1569735f71bf185c571cbba28e8e4c355c4",
          "transactionIndex": "0x0",
          "logIndex": "0x0",
          "removed": false
        }
      ],
      "logsBloom": "0x00000000000000000000000000000000000100000000000000000000000000000000002000000000000000000000000000400000000000000000000000000000000000000000000000000000000000000000000000000000000000000000000000000000020000000000000000000800000000000000000000000000000800000000000000000000000000000000000000000000000000000000000000000000000000000000000000000000000000000000000004000000000000000000000000000000000000000000000000000000000000000000000000000000000020000000000000000000000000080000000000000000000000000000000000000000",
      "type": "0x2",
      "transactionHash": "0xf30a2c22bc5d1e320b3952cd5f21e1569735f71bf185c571cbba28e8e4c355c4",
      "transactionIndex": "0x0",
      "blockHash": "0x8f03e8b20b41396caf426ca620c6fed47ac9cc4a5bf760496624f7f1b5b3a868",
      "blockNumber": "0xb0c6e",
      "gasUsed": "0x9c27",
      "effectiveGasPrice": "0x1dcd6501",
      "from": "0x6d9ee3d3f6fc84d8a615b1d0f6437bc273c709b9",
      "to": "0xe6e02e83a368d09cbbf51ee019e0646c1406053d",
      "contractAddress": null
    }
  ],
  "libraries": [],
  "pending": [],
  "returns": {},
  "timestamp": 1740139273,
  "chain": 6025,
  "commit": "4dbc1c4"
}