{
  "transactions": [
    {
      "hash": "0xfe90cad63076743256fffa721c24ddbd0f6f0aabe51aeeadb943f046492ca0d7",
      "transactionType": "CALL",
      "contractName": null,
      "contractAddress": "0xe6e02e83a368d09cbbf51ee019e0646c1406053d",
      "function": "createDid(uint8,string)",
      "arguments": [
        "1",
        "test metadata"
      ],
      "transaction": {
        "from": "0x6d9ee3d3f6fc84d8a615b1d0f6437bc273c709b9",
        "to": "0xe6e02e83a368d09cbbf51ee019e0646c1406053d",
        "gas": "0x2fa91",
        "value": "0x0",
        "input": "0x659c520600000000000000000000000000000000000000000000000000000000000000010000000000000000000000000000000000000000000000000000000000000040000000000000000000000000000000000000000000000000000000000000000d74657374206d6574616461746100000000000000000000000000000000000000",
        "nonce": "0x2",
        "chainId": "0x1789"
      },
      "additionalContracts": [],
      "isFixedGasLimit": false
    }
  ],
  "receipts": [
    {
      "status": "0x1",
      "cumulativeGasUsed": "0x29590",
      "logs": [
        {
          "address": "0xe6e02e83a368d09cbbf51ee019e0646c1406053d",
          "topics": [
            "0xddf252ad1be2c89b69c2b068fc378daa952ba7f163c4a11628f55a4df523b3ef",
            "0x0000000000000000000000000000000000000000000000000000000000000000",
            "0x0000000000000000000000006d9ee3d3f6fc84d8a615b1d0f6437bc273c709b9",
            "0x0000000000000000000000000000000000000000000000000000000000000000"
          ],
          "data": "0x",
          "blockHash": "0x509d1de0e5b055c18738ab35a53f52e2323000e4e2d3c639cc0d28a4a810a10e",
          "blockNumber": "0xb0c5e",
          "transactionHash": "0xfe90cad63076743256fffa721c24ddbd0f6f0aabe51aeeadb943f046492ca0d7",
          "transactionIndex": "0x0",
          "logIndex": "0x0",
          "removed": false
        },
        {
          "address": "0xe6e02e83a368d09cbbf51ee019e0646c1406053d",
          "topics": [
            "0x035e0e44205841e243b41143f53ad954802527c576355f00bf30971bb9fa77ab",
            "0x0000000000000000000000000000000000000000000000000000000000000000",
            "0x0000000000000000000000006d9ee3d3f6fc84d8a615b1d0f6437bc273c709b9"
          ],
          "data": "0x0000000000000000000000000000000000000000000000000000000000000020000000000000000000000000000000000000000000000000000000000000000d74657374206d6574616461746100000000000000000000000000000000000000",
          "blockHash": "0x509d1de0e5b055c18738ab35a53f52e2323000e4e2d3c639cc0d28a4a810a10e",
          "blockNumber": "0xb0c5e",
          "transactionHash": "0xfe90cad63076743256fffa721c24ddbd0f6f0aabe51aeeadb943f046492ca0d7",
          "transactionIndex": "0x0",
          "logIndex": "0x1",
          "removed": false
        }
      ],
      "logsBloom": "0x00000000000000000001000000000000000100000000000000000000000000000000000000000000200000000000000000400000000000000000000000000000000000000000000000000008000000000000000000000000000000000000000000000000020000000000000000000800000000000000100000000010000000000000000000000000000000000000100000000000000000000000000000000000000000000000000000000000000000000000000000000000000000000000000000000042000000000000000000000000000000000000000000000000000020000000000000000000000000080000000000000000000000000000000000000000",
      "type": "0x2",
      "transactionHash": "0xfe90cad63076743256fffa721c24ddbd0f6f0aabe51aeeadb943f046492ca0d7",
      "transactionIndex": "0x0",
      "blockHash": "0x509d1de0e5b055c18738ab35a53f52e2323000e4e2d3c639cc0d28a4a810a10e",
      "blockNumber": "0xb0c5e",
      "gasUsed": "0x29590",
      "effectiveGasPrice": "0x1dcd6501",
      "from": "0x6d9ee3d3f6fc84d8a615b1d0f6437bc273c709b9",
      "to": "0xe6e02e83a368d09cbbf51ee019e0646c1406053d",
      "contractAddress": null
    }
  ],
  "libraries": [],
  "pending": [],
  "returns": {},
  "timestamp": 1740139051,
  "chain": 6025,
  "commit": "4dbc1c4"
}